:020000020000FC
:100000000C94772E1895189518951895189518959D
:100010001895189518951895189518950C9472259B
:1000200018951895189518950C948F2D1895189566
:100030001895189518951895189518951895189558
:100040001895189518951895189518951895189548
:100050001895189518951895189518950C94681476
:10006000189518950C942418189518950C945018F8
:100070001895189518951895189518951895189518
:100080001895189518951895189518951895189508
:1000900018951895189518951895189518951895F8
:1000A000189518950C9484251895189565736172A8
:1000B000454D564E20676F72504D564E20676F72F9
:1000C000504D564E202020202044434F6574267307
:1000D000554D564E12010002EF020120EB0345215F
:1000E00000100102030109026B00030100803209C4
:1000F0000400000203000000092111010001222375
:1001000000070581034000010705020340000108C4
:100110000B010202020104090401000102020100B4
:10012000052400100104240206052406010205240A
:100130000103020705830340000809040200020AC4
:10014000000000070584024000000705050240008A
:10015000000C03410054004D0045004C0020036D8D
:10016000004500440042004700200043004D00537A
:1001700000490053002D0044004100500014036D5D
:100180000045004400420047002000430044004373
:10019000002A03040309040600FF0901A101150058
:1001A00026FF00750896400009018102964000096B
:1001B00001910295040901B102C00001FA0582040F
:1001C0000193040186040EA10401C80401CB0401BB
:1001D000D70401E10401E40401E7040AEA0401F59B
:1001E00004010805011B050137050C5005015905DF
:1001F0000160050163050168050174050180050AB8
:10020000840501980501EE05019D0501BF0501DD8D
:10021000050BF505FB000001300D400901670901E0
:10022000980901CA0901FC09012E0A01580A018234
:100230000A01AC0A01EC0A01110B013F0B016D0B25
:1002400001900B01AE0B01CD0B01EC0B01160C0163
:10025000400C016A0C018F0C0CB50C10E20C01096A
:100260000DFB0000D50E0A00B40EC30EC50EC70E5E
:10027000D50ECE0EC30EB40EB40ED00E20016111F9
:10028000C01002C0107E841010841001C01001C084
:100290001001C01001C01003C01001F31008841039
:1002A00001841004C01001C0100A2D11011E11029A
:1002B0004311FB0020014A12231202C6118EB11114
:1002C00001C61101D71101D7110423120100120830
:1002D000B11101B11101B01101B01101C61101310B
:1002E000120B101201EF11014012FB0010E0F80197
:1002F000ED58FC4F0081089508959A938A930091D8
:100300006C0A002309F48AC00091D202002349F04C
:100310000091D3020E940F19002319F000E000930E
:10032000D2020091D202002391F505E00093E9008A
:100330000091E800102F12FF2AC08091F20001C046
:100340008A958823D1F09091F100092F0E940F190E
:100350000023B1F79093D30201E00093D2028A9573
:1003600009F05CC00091E8000B7F0093E800009169
:10037000E8000F770093E80051C00091E8000B7F80
:100380000093E8000091E8000F770093E8000E94D6
:100390003519802F882331F00F7321F001E000938D
:1003A000D1020CC000E0FBCF0091E8000E7F00936B
:1003B000E8000091E8000F770093E8008823A9F097
:1003C00004E00093E9000091E800102F15FFFBCF37
:1003D0000091E800102F15FFE7CF882329F30E9432
:1003E00038190093F1008A95F3CF0091D1020023D0
:1003F000A9F004E00093E9000091E800102F15FF38
:10040000FBCF0091E8000E7F0093E8000091E80028
:100410000F770093E80000E00093D1028991999151
:100420000895229720E02883298309C024E02A9593
:10043000F1F7288139812F5F3F4F28833983288145
:1004400039812017310790F3229608959A938A9361
:10045000C80104C008EE13E00E941102FC010197DC
:10046000EF2BC1F78991999108950E943C2F2901A2
:1004700080E0D2011296F2018083F8010181005FD1
:1004800009F467C00E5009F46CC00A9509F463C002
:10049000025061F00A95B9F00A95B1F10A95C9F1D7
:1004A0000A9521F00A9509F440C05EC001E40C935E
:1004B00004E7FD0101830DE6028305E603830CE6F4
:1004C000048385E051C00DE60C9305E4FD01018332
:1004D00004E4028302E4038307E4048300E2058367
:1004E00003E406830DE4078303E5008709E401873D
:1004F00003E502870DE2038704E4048701E405872E
:1005000000E506878FE030C08D010E94551384E11D
:100510002BC08C93FD018183828301E0038384835C
:1005200085838683878388E01FC09CE7662405C097
:10053000FD01E60DF81F008363940EE16016A0F440
:10054000092F10E00E9435139395002389F7862D1B
:100550000BC003E007C000E40C93FD01818382E03F
:1005600003C001E00C9381E0F2018183082FE7E0F2
:100570000C94492FF8010081F9010083418300E0C8
:1005800008950E943F2FF801C90100E8DC010C9397
:10059000238100E017C010E0DF01A00FB11F149607
:1005A0001C914091C2025091C302DA01A15CB94F83
:1005B0001C93A2ECB2E04D915C914F5F5F4F5C9356
:1005C0004E930395021738F3018102950F70118144
:1005D0001F70011721F40E94852601E001C000E090
:1005E000FC01018300E0E4E00C944C2F0E943F2FBB
:1005F000D90101E80C930E949326002309F45CC002
:100600000091D5021091D402011769F44CE350E037
:100610000091C2021091C3020E94972E039500938D
:10062000D50201E003C00091D40203950093D402E7
:100630000091D4020295007F1091D502012BFD019B
:10064000018300E002830091D4021091D5020117CA
:1006500058F40CE30383E2ECF2E0008111810C53C7
:1006600010400083118303C00091C2020383809174
:10067000D40290E001974CE350E08C010E94892E57
:1006800020E00DC030E0A801420F531FFA01E15CE9
:10069000F94F4081FD01E20FF31F44832395FD01D3
:1006A0003381231778F30091D5021091D4020117FA
:1006B00031F40E949B2603C000E0FD01018300E0AD
:1006C000E4E00C944C2FBA93AA93D90102E80C935E
:1006D0000E949F27002300E0FD010183C1F00E94DA
:1006E000B627FD0102830E94B92720E009C0F80166
:1006F00041918F0130E0FD01E20FF31F4383239509
:10070000FD013281231798F30E94A72701C00283BD
:1007100008E0A991B9910895BA93AA93F801D90173
:1007200003E80C9304E00093D60230E466ED72E037
:10073000AD012381118102810E94340911960C932D
:10074000119700E012960C9312970091D60213961F
:100750000C930091D602A991B99108955B2F0A2EAE
:10076000F801D90100810C930181302F20E010E0C5
:1007700000E06281020F261F4381141F4481040F91
:10078000013342E714074CE7240740E1340721F026
:100790000FEFFD01018306C000E0FD01018301E0D0
:1007A0000093A60202E0A02DB52F08950E943B2FD2
:1007B000C801D901FC010081005801F10A9511F12D
:1007C0000A9519F10A9521F1025029F10A5109F40B
:1007D00063C0015639F00A9541F00A9541F00A9537
:1007E00049F053C08C0141DE54C040E050C001913B
:1007F000CF010D93FC010191CF010D939D018C015F
:10080000C0DE47C08C01F2DE44C08C015CDF41C019
:100810008C0182DF3EC005E80C9371805280442435
:100820000381402A0AE0400E00E0501E662405C005
:10083000299882010E94110263946714E8F4FC0174
:10084000048107FF0CC0062D10E0E00FF11F0581A9
:1008500007FF03C054985C9A02C0549A5C98FC014C
:10086000048100FFE6CF062D10E0E00FF11F0581A7
:1008700000FFDECF299ADDCF54985C9A05E010E0A6
:100880000E94260200E0FD01018340E09D018C01F1
:1008900071DEE8E00C94482F8C0160DFFACFE7EDC1
:1008A000F2E000E0068B078B008F048B0895E7EDE4
:1008B000F2E00FEF008300E00183028303830483EF
:1008C00005830683078710D00895E7EDF2E000E086
:1008D000008B01E0018B02E3028B00E0038B0895A3
:1008E000DEDFE5DFF2DF089508950E943A2F2897B2
:1008F0000E94AF26802F0E94AF26082FEAEBF1E07E
:100900000C94E72E0E94BB26B1D277C10E94BB2671
:10091000902F0E94BB26802F0E94BB26202F182FCD
:10092000092F19D26AC10E94BB26902F0E94BB26B4
:10093000802F0E94BB26202F182F092F76D11BD382
:100940005CC1D2DF0E94AF26002311F001E001C09C
:1009500000E0E7EDF2E0038B9E012C5F3F4F03893F
:100960000E94BB0F002311F40CD347C1043871F46B
:1009700000E02CD30C811D812E813F810E941C2719
:1009800000E00E94DA260E94032737C109D335C14F
:100990000E94A60FD4CF8E010E9451120023B1F7FE
:1009A00000E014D3088119812A813B81E7CF0E949E
:1009B000AF26002311F001E001C000E00E94EA0F21
:1009C000BECF0E940E10BBCF0E945010B8CF0E9425
:1009D0005810B5CF0E94AF26802F0E94C626A801CE
:1009E000B901082F0E946412AACF0E94AF26402EA0
:1009F0000E94C626C801D9010E94C6263A932A93AE
:100A00001A930A93AC01BD01042D0E947310F5C026
:100A10000E94AF26402E0E94C626C801D9010E941E
:100A2000C6263A932A931A930A93AC01BD01042D6A
:100A30000E946811E2C00E94AF26802E0E94C62646
:100A4000C801D9010E94C626280139010E94AF269B
:100A5000002311F011E001C010E07A926A925A92DC
:100A60004A92AC01BD01082D0E949B11C6C00E9494
:100A7000AF26402E0E94C626C801D9010E94C62674
:100A80003A932A931A930A939E012C5F3F4FAC012D
:100A9000BD01042D0E948712002309F481CF76CF77
:100AA0000E94AF26013011F000E970CF0E944D1076
:100AB00046CF0E94AF260130B9F70E9425103FCFE4
:100AC0000E941D103CCF0E94C6260E942E1037CFD8
:100AD0000E94AF26802F0E94AF26813029F7013077
:100AE00019F70E9432102BCF8E010E94351000237F
:100AF00031F4088119812A813B8174D27EC046CFAE
:100B00000E94C62681D01BCF0E94AF26402E0E9495
:100B1000AF26502E0E94C626C801D9010E94AF26DA
:100B2000202FAC01BD01152D042D0E948C1207CF82
:100B30000E94AF260E94981202CF0E944727C80148
:100B4000A0E00091D902043039F403E10E9476015B
:100B5000013011F400E81ACF082F037019F4082FA0
:100B6000092B41F407E312CF0E94C6260E94CF173B
:100B7000A02B0497082F092BB9F70A2FE0CE0E946B
:100B80004727C801A0E00091D902043029F403E10D
:100B90000E9476010130F1F2082F037019F7082F37
:100BA000092B39F4DFCF0E94C6260E94E117A02B43
:100BB0000497082F092BB9F7E0CF00919502002385
:100BC00011F002E3E3CE0E94A017002329F00E9457
:100BD0005E17002309F0C8CE0FEFD8CE0091950222
:100BE000002379F70E94A012AACE0E94C6260E9476
:100BF0008A12A5CE01E9D4D100000E94542728967C
:100C0000E9E00C94472F0895E9E3F4E041E044A3C0
:100C100040919502442319F0000002E3089500A3D7
:100C200011A322A333A300E008959A938A93812FFE
:100C3000922F005089F00A9559F10A95F9F10A9519
:100C400009F44AC000E942C00E94BB26102F0A9551
:100C50000230C0F41093D802092F9A950023A9F10D
:100C6000082F8395005019F00A9571F3F5CF0E9473
:100C7000BB26102F1150135010F01A9519F4009341
:100C8000D702EACF01E122C00E94BB260093D9021D
:100C9000092F9A950023C9F0082F83950050A1F3DE
:100CA000005149F40E94AF26053010F000E20EC05A
:100CB0000093E602EDCF0E94BB26EACF0E94D52624
:100CC0009801192F082F0E94091300E0899199912A
:100CD000089500E00093E702092F9A950023A9F3F5
:100CE000082F8395005039F0035059F00A9599F078
:100CF000035029F12DC00E94BB26002351F301E0CF
:100D0000E9CF0E94BB26002311F001E001C000E002
:100D10000093E802E1CF0E94BB26102F115051F042
:100D2000145041F0155031F01A5021F01E5111F0BD
:100D3000125319F40093E902CFCF03E2C7CF0E9408
:100D4000BB26002311F001E001C000E00093EB029C
:100D50000E94BB26C1CF0E943F2FA02F812FB22F10
:100D600091E000E033D10E944427A05809F468C004
:100D7000A05889F0AA9529F1AA9509F451C0AA951D
:100D8000B9F190E0992309F469C000E068C00091CE
:100D9000D7020E9407270B2FBA95002399F3082F3B
:100DA00083950050A1F30A9519F40091D802F1CF70
:100DB00000E00E94072790E0EECF0091E6020E943B
:100DC00007270B2FBA950023E9F2082F83950050CF
:100DD00019F0005191F303C00091D902F0CF00E067
:100DE0000E94072790E0EDCF0091E7020E940727BD
:100DF0000B2FBA95002331F2082F83950050A1F3F1
:100E0000035019F00A9521F006C00091E802EECFD8
:100E10000091E902EBCF00E00E94072790E0E8CFC5
:100E20000B2FBA95002309F4ADCF082F0E9476014D
:100E300083950E940727F4CF009195020E94DA263D
:100E40000B2FBA95002309F49DCF082F839500231B
:100E500099F300E00E94072790E0F2CF01E10E94A1
:100E6000DA260E940327E4E00C944C2F8A93802F0B
:100E7000D2D08050B1F08A9509F451C08A9509F416
:100E800050C08A9509F44FC0825009F44EC08A952B
:100E900009F44EC08A9509F44DC08A9509F45BC0E7
:100EA00066C000E00E94DA2601E00E94DA2602E035
:100EB0000E94DA2600E10E94DA2601E10E94DA2689
:100EC00002E10E94DA2603E10E94DA2604E10E9490
:100ED000DA2601E20E94DA2602E20E94DA2603E222
:100EE0000E94DA2600E30E94DA2601E30E94DA2655
:100EF00002E30E94DA2603E30E94DA2604E30E945A
:100F0000DA2605E30E94DA2606E30E94DA2603E4E5
:100F10000E94DA2604E40E94DA2605E426C003E0F3
:100F200024C002E022C008E020C000E00E94DA26CF
:100F300001E01BC000E20E94DA2602E20E94DA26EB
:100F400000EA0E94DA2600EB0E94DA2601EB0E94FA
:100F5000DA2604EB0AC000E20E94DA2602E20E94CE
:100F6000DA2600EB0E94DA2601EB0E94DA260E94C4
:100F7000032789910895002311F012D0089501D01C
:100F8000089500E00E94EE2602E10E94DA2600E8C1
:100F90000E94DA2600E00E94DA260E9403270895C4
:100FA0008A93802F30DE00E00E94EE2602E10E944C
:100FB000DA2600EA0E94DA2600E00E94DA26082FEC
:100FC0000E94DA260E940327899108950E94EE2646
:100FD00002E10E94DA2604E80E94DA2600E00E947C
:100FE000DA2608950E943F2FC801D90100E00E942F
:100FF000EE2602E10E94DA2603E80E94DA2600E0EB
:101000000E94DA268C019D010E941C270E94032762
:10101000E4E00C944C2F00E00E94EE2602E10E94D6
:10102000DA2601E80E94DA2600E00E94DA26089516
:101030000E943A2FC801D901842E3B010E948927C2
:101040002801012BD1F022E182010E94582720E4DF
:1010500082010E945827AC01BD0182010E947A27BB
:10106000282D82010E945827930182010E946E2739
:1010700082010E94932701E001C000E0E9E00C94A6
:10108000472F0E94402FA02F0E948927C801012BC3
:1010900099F022E18C010E94582721E48C010E94E2
:1010A000582720E08C010E9458272A2F8C010E948B
:1010B00058278C010E949327E3E00C944D2F0E9447
:1010C000402F0E94AF26802F0E94AF26805069F0EB
:1010D0008A9569F08A95C9F08E51A1F18A9549F1F6
:1010E0008950F9F18A95F9F140C044D03EC00E9480
:1010F000BB26902F0E94BB26802F0E94BB26202F4C
:10110000182F092F51D017D530C00E94BB26A02F11
:101110000E94BB26802F0E94BB26902F00E0FFD4A8
:10112000292F182F0A2F73D00E94DA260E94032736
:101130001CC00E94BD26012B11F001E001C000E09F
:101140009CD412C000E0EBD41E9B05C00091A2020B
:101150001091A30202C000E010E00E940A2700E004
:10116000E3CFA7D401C09DD4A9D40E945427E3E0C3
:101170000C944D2F0E94AF26002399F4C3D400E0B5
:101180000E94DA2601E00E94DA2602E00E94DA26B6
:1011900000E20E94DA2601E20E94DA260E9403277A
:1011A000089501E09AD408950E943F2FB22F80E065
:1011B00090E0005099F0005119F00A9531F592E055
:1011C000212F820FA0E0AB1788F40E94AF26202FBA
:1011D0008C010E9426130196A395F5CF105029F09B
:1011E0001A9541F01F5041F010C043D400E0E4E0F4
:1011F0000C944C2F3AD4FACF0E94BB26002311F056
:1012000001E001C000E039D4F1CF01E1F0CF0E944C
:101210003F2FA22F80E090E0005091F0005119F094
:101220000A9501F592E0212F820FB0E0BA1790F4F1
:101230008C010E94351301960E94DA26B395F6CFF1
:10124000105029F01A9519F01F5041F00BC000E022
:101250000E94DA2600E0E4E00C944C2F1E9BF7CFAE
:1012600001E0F6CF01E1F7CF0E943A2F412E522E36
:10127000CA01DB01632E7724E6E1F2E00C94E72E4D
:10128000062D10E0EC91F0E033960E171F071CF4CA
:1012900000E3702EE6C30C91102F13951C93FC01F4
:1012A000E00FF71D70820C91102F13951C93FC0119
:1012B000E00FF71D70820C91102F13951C9321E005
:1012C000FC01E00FF71D20834A9409F4CAC3062DE0
:1012D00010E0EC91F0E077960E171F07CCF20C911E
:1012E000102F13951C9321E0FC01E00FF71D2083C4
:1012F0000C91102F13951C9320E110E0FC01E00FDE
:10130000F11F208344E10C919C01200F311F04E068
:101310000E9442130C910C5E0C930C91102F1395AC
:101320001C93FC01E00FF71D70824A9409F499C3E5
:10133000062D10E0EC91F0E0F5960E171F070CF467
:10134000A7CF0C91102F13951C9322E0FC01E00F06
:10135000F71D20830C91102F13951C9320E110E0B2
:10136000FC01E00FF11F208342E30C919C01200F50
:10137000311F08E10E9442130C910E5C0C930C91FA
:10138000102F13951C93FC01E00FF71D70824A94F7
:1013900009F467C3062D10E0EC91F0E0F5960E1706
:1013A0001F070CF475CF0C91102F13951C9323E09D
:1013B000FC01E00FF71D20830C91102F13951C9357
:1013C00020E110E0FC01E00FF11F208342E30C91CB
:1013D0009C01200F311F0AE40E9442130C910E5C05
:1013E0000C930C91102F13951C93FC01E00FF71D2B
:1013F00070824A9409F435C3062D10E0EC91F0E0B8
:10140000B1960E171F070CF443CF0C91102F1395B4
:101410001C9324E0FC01E00FF71D20830C91102F9A
:1014200013951C9320E110E0FC01E00FF11F2083D5
:101430004EE10C919C01200F311F0CE70E944213DA
:101440000C91025E0C930C91102F13951C93FC01D0
:10145000E00FF71D70824A9409F403C3062D10E0D3
:10146000EC91F0E036960E171F070CF411CF0C919B
:10147000102F13951C9325E0FC01E00FF71D20832E
:101480000C91102F13951C9322E010E0FC01E00F4B
:10149000F11F20834EE10C919C01200F311F0AE9BE
:1014A0000E9442130C910C5F0C934A9409F4D9C228
:1014B000062D10E0EC91F0E036960E171F070CF4A5
:1014C000E7CE0C91102F13951C9326E0FC01E00F42
:1014D000F71D20830C91102F13951C9322E010E030
:1014E000FC01E00FF11F20834EE10C919C01200FC5
:1014F000311F0EE90E9442130C910C5F0C934A9429
:1015000009F4AFC2062D10E0EC91F0E036960E170C
:101510001F070CF4BDCE0C91102F13951C9327E0E0
:10152000FC01E00FF71D20830C91102F13951C93E5
:1015300022E010E0FC01E00FF11F20834EE10C914E
:101540009C01200F311F02EA0E9442130C910C5F94
:101550000C934A9409F485C2062D10E0EC91F0E05A
:1015600034960E171F070CF493CE0C91102F139581
:101570001C9328E0FC01E00FF71D20830C91102F35
:1015800013951C9322E0FC01E00FF71D20830C91C2
:10159000102F13951C93FC01E00FF71D70820C9126
:1015A000102F13951C9320E2FC01E00FF71D208300
:1015B0000C91102F13951C9321E0FC01E00FF71DF7
:1015C00020830C91102F13951C93FC01E00FF71D45
:1015D00070824A9409F445C2062D10E0EC91F0E0C7
:1015E00033960E171F070CF453CE0C91102F139542
:1015F0001C9329E0FC01E00FF71D20830C91102FB4
:1016000013951C93FC01E00FF71D70820C91102FB5
:1016100013951C93FC01E00FF71D70824A9409F4A6
:1016200020C2062D10E0EC91F0E034960E171F0753
:101630000CF42ECE0C91102F13951C932AE0FC0174
:10164000E00FF71D20830C91102F13951C9321E0C0
:10165000FC01E00FF71D20830C91102F13951C93B4
:10166000FC01E00FF71D70820C91102F13951C9355
:10167000FC01E00FF71D70824A9409F4F2C1062DB7
:1016800010E0EC91F0E034960E171F070CF400CE3A
:101690000C91102F13951C932BE0FC01E00FF71D0C
:1016A00020830C91102F13951C9321E0FC01E00F77
:1016B000F71D20830C91102F13951C93FC01E00F54
:1016C000F71D70820C91102F13951C93FC01E00FF5
:1016D000F71D70824A9409F4C4C1052D0A950A3099
:1016E00010F07394BEC10C91102F13951C932CE035
:1016F000FC01E00FF71D20830C91102F13951C9314
:1017000020E1FC01E00FF71D20830C91102F1395B1
:101710001C93FC01E00FF71D70824A9409F4A1C1EB
:10172000052D0A950A30E8F60C91102F13951C939D
:101730002DE0FC01E00FF71D20830C91102F139575
:101740001C9320E1FC01E00FF71D20830C91102F6A
:1017500013951C93FC01E00FF71D7082052D0A956F
:101760000A3008F0BECF0C91102F13951C932EE079
:10177000FC01E00FF71D20830C91102F13951C9393
:1017800020E1FC01E00FF71D20830C91102F139531
:101790001C93FC01E00FF71D7082052D0A950A309D
:1017A00008F09FCF0C91102F13951C932FE0FC0194
:1017B000E00FF71D20830C91102F13951C9320E14F
:1017C000FC01E00FF71D20830C91102F13951C9343
:1017D000FC01E00FF71D7082052D0A950A3008F014
:1017E00080CF0C91102F13951C9320E1FC01E00F8A
:1017F000F71D20830C91102F13951C9321E0FC0101
:10180000E00FF71D20830C91102F13951C93FC0102
:10181000E00FF71D70820C91102F13951C93FC01A3
:10182000E00FF71D70824A9409F41BC1052D0A953B
:101830000A3008F056CF0C91102F13951C9321E11C
:10184000FC01E00FF71D20830C91102F13951C93C2
:1018500021E0FC01E00FF71D20830C91102F139560
:101860001C93FC01E00FF71D70820C91102F139553
:101870001C93FC01E00FF71D70824A9409F4F1C03B
:101880005A940AE0501608F02CCF0C91102F1395A3
:101890001C9322E1FC01E00FF71D20830C91102F17
:1018A00013951C9321E0FC01E00FF71D20830C91A0
:1018B000102F13951C93FC01E00FF71D70820C9103
:1018C000102F13951C93FC01E00FF71D70824A94B2
:1018D00009F4C7C0062D10E0EC91F0E033960E1726
:1018E0001F070CF4D5CC0C91102F13951C9323E1FA
:1018F000FC01E00FF71D20830C91102F13951C9312
:10190000FC01E00FF71D70820C91102F13951C93B2
:10191000FC01E00FF71D70824A9409F4A2C0062D65
:1019200010E0EC91F0E033960E171F070CF4B0CCEA
:101930000C91102F13951C9324E1FC01E00FF71D6F
:1019400020830C91102F13951C9320E1FC01E00FD4
:10195000F71D20830C91102F13951C93FC01E00FB1
:10196000F71D70824A9409F47CC0062D10E0EC91BA
:10197000F0E0B2960E171F070CF48ACC0C91102FD2
:1019800013951C9320E2FC01E00FF71D20830C91BE
:10199000102F13951C9310E0FC01E00FF71D20831E
:1019A00000E00AC02C91322F33953C93FC01E20FEA
:1019B000F71D70820F5F1F4F003217059CF34A948A
:1019C00009F44FC0062D10E0EC91F0E033960E17AD
:1019D0001F070CF45DCC0C91102F13951C93FC0188
:1019E000E00FF71D70820C91102F13951C9310E0DF
:1019F000FC01E00FF11F10838C90082D03950C93D0
:101A00000EEF0E943513FC01E80DF71D00834A9488
:101A100041F1062D10E0EC91F0E033960E171F0710
:101A20000CF436CC0C91102F13951C93FC01E00F95
:101A3000F71D70820C91102F13951C93FC01E00F81
:101A4000F71D70826C90062D03950C9300E212E056
:101A50000E943513860D971DFC0100834A9409F0FE
:101A60007A94072DE9E00C94472F0E94BB2601E0F1
:101A700008950E94BB2600E00895002351F02698A7
:101A80002E980AE010E00E94110225980E94E42797
:101A900006C00E94F8272E98269A2D98259A00E0D5
:101AA000089526982E980AE010E00E9411022598C9
:101AB00008952E98269A259800E0089500E00E9447
:101AC000EE2600E20E94DA2600E80E94DA2600E014
:101AD0000E94DA260E94032708958A93802F00E04F
:101AE0000E94EE2600E20E94DA2600EA0E94DA2630
:101AF00000E00E94DA26082F0E94DA260E940327BF
:101B00008991089500E00E94EE2600E20E94DA2604
:101B100001E80E94DA2600E00E94DA2608950E9479
:101B2000EE2600E20E94DA2604E80E94DA2601E0AE
:101B30000E94DA260895002311F4C0DF0895CDDF56
:101B400008950E94AF26002311F406D002C000E1E0
:101B50007BD10E94542708959A938A9364970E9498
:101B6000AF260E94AF26005809F457C00A95A1F18C
:101B70000A95E1F10A9509F445C00A9509F459C09E
:101B80000C5749F00A95B9F00A95D9F00A95F9F081
:101B90000A9501F159C07AD100E00E94DA2601E0ED
:101BA0000E94DA2602E10E94DA2600E20E94DA268A
:101BB0000E9403274BC06AD102E00E94DA2603E0AC
:101BC000F5CF64D101E00E94DA2602E0EFCF5ED1CA
:101BD00008E0ECCF5BD1ECCF59D18E010E945513B8
:101BE0009E0104E110E00E942F27E2CF4FD180E058
:101BF00090E003C00E94DA2601968E3000E0900744
:101C0000CCF3D6CF43D180E090E0823000E0900763
:101C10007CF60E94DA260196F8CF38D104E70E94BC
:101C2000DA260DE40E94DA2601E40E94DA2604E4B2
:101C3000BDCF2CD180E090E08F3000E090070CF712
:101C40000E94DA260196F8CF00E1FED064968991D1
:101C5000999108959A938A930E94AF26802F0E94AB
:101C6000AF26805059F08A9559F08A95B1F08E5080
:101C700009F18A9511F18F5399F134C03AD034C0EB
:101C80000E94BB26902F0E94BB26802F0E94BB265D
:101C9000202F182F092F4FD026C00E94BB26902F2F
:101CA0000E94BB26802F0E94BB26202F182F092FB1
:101CB00044D01AC0B4D0B9D017C00E94BB26802F20
:101CC000B3D0B3D0813081F4F894A895009160002E
:101CD0000861009360000EE000936000789404C0F7
:101CE00013D102C000E1EBD00E9454278991999151
:101CF00008950E94AF26005019F00250A9F018C0B4
:101D0000B8D000E00E94DA2601E00E94DA2602E064
:101D10000E94DA2600E10E94DA2601E10E94DA261A
:101D200000E50E94DA2601C0A4D00E94032708958E
:101D300000E18AD0089500E008950E943F2FB02F5F
:101D4000912F822FA1E000E0AED00E944427B05036
:101D500071F0BA95B9F1B25009F446C0A0E0AA23D7
:101D600009F455C000E054C000E00E94DA26082FB4
:101D70008A950023A1F3813890F7092F9395E2E625
:101D8000F2E00C94E72E01E0F0CF0DE0EECF0BE295
:101D900010E00E940A2793958A95E9CF02E0E5CFEB
:101DA0000EEF10E00E943513E0CF00E00E94DA262B
:101DB000A0E0DDCF0091A2021091A3020E940A27A9
:101DC00093958A95082F8A95002349F2813838F631
:101DD000092F9395002371F300E00E94DA26A0E01A
:101DE000F1CF0AE00E94DA26082F8A95002309F431
:101DF000B6CF813808F0B3CF092F9395005089F3FF
:101E00000A9579F300E00E94DA26A0E0EDCF01E127
:101E10000E94DA260E940327E4E00C944C2F0E94D3
:101E200070040E946B130895089500E00E94EE264E
:101E300001E00E94DA2600E80E94DA2600E00E9413
:101E4000DA260E94032708958A93802F00E00E94DB
:101E5000EE2601E00E94DA2600EA0E94DA2600E07F
:101E60000E94DA26082F0E94DA260E940327899111
:101E7000089500E00E94EE2601E00E94DA2601E8C3
:101E80000E94DA2600E00E94DA26089500E00E940F
:101E9000EE2600E00E94DA2601E80E94DA2600E041
:101EA0000E94DA2608950E94EE2601E00E94DA26BA
:101EB00004E80E94DA2601E00E94DA260895002351
:101EC00011F4B3DF0895C0DF08950E943F2FB02FB3
:101ED000A12F0E948927C801012B99F021E08C01D4
:101EE0000E9458272B2F8C010E94582720E08C013C
:101EF0000E9458272A2F8C010E9458278C010E948B
:101F00009327E4E00C944C2F0E94C626013342E74D
:101F100014074CE7240740E1340719F001E194DF8E
:101F2000089501E00093A60280DF08959A938A93B2
:101F3000902F0E947601802F9395092F0E947601A1
:101F4000282F302F89018991999108950091EF02EE
:101F5000002311F400E008950E945821002311F09D
:101F60000E94BC210E94322400E00E94CE2300E0A7
:101F70000093EF0208950E943F2FD9010091EF02D4
:101F8000002311F001E323C00E94421501E00E94EA
:101F9000CE230E94C2200E94F423802F882389F43C
:101FA0000E94FE200E943F24802F882351F40E942B
:101FB0004A210D931D932D933C9384E801E00093F7
:101FC000EF02843819F000E00E94CE23082FE4E0ED
:101FD0000C944C2F8A93802F0E945821002369F083
:101FE000882349F000919502002319F00E9457239D
:101FF00002C00E94C32100E00FC00091EF02002345
:1020000011F401E309C00091EE02002311F002E394
:1020100003C0082F0E945B21899108950E945821D6
:10202000002311F400E008950091EF02002311F461
:1020300001E308950E94BC21089540E000E010E013
:1020400020E030E00E94342308950E9457230023AB
:1020500011F40E9454190E943F24089541E00E9407
:10206000342308950E94AC2308959A938A93C8015B
:1020700000919502002311F00E945419E9E3F4E065
:1020800000A111A122A133A1FC01008311832283AD
:10209000338300E08991999108950E94B8230895AF
:1020A0000E94731C002319F411E01093EE020895AE
:1020B00000E00093EE020091D802013061F40E942A
:1020C0000B1D0E9484130091D802013009F43EDFF9
:1020D0000E943F2408950E945821002381F700E0C8
:1020E0000E945B21ECCF0E943D2F2297A02F0885F4
:1020F0001985C801488359830E94442728010A2F63
:10210000ECE7F2E00C94E72E00E00E94E6079E0167
:102110000A2FE0D00023E9F00091EE02002379F4C9
:102120000E946F15002359F0F201408151819C01FA
:1021300036952795088119810E94381A0AC0F20144
:10214000408151819C0136952795088119810E9413
:10215000581AF20100811181080F191F00831183A1
:102160008C010E94FA260E943724002311F000E01F
:1021700002C00E9451240E94DA260E940327A4C0B4
:1021800000E00E94E60721C0A82FF20140815181A2
:102190002A2F30E0088119810E94771AB0E0F201FD
:1021A000008111810A0F1B1F008311830A2F10E089
:1021B0000E94FA268A1B9040082F092B31F00881D3
:1021C000198100581F4F08831983082F092B31F0FC
:1021D000813800E09007C0F2A0E8D7CF0E943724F2
:1021E000002329F6C6CF00919502002311F002E3E7
:1021F00069C000E00E94E60706E00E94960FF20127
:10220000408151819C0168817981060F171F005E12
:102210001F4F0E94771AA02FF20100811181080F31
:10222000191F008311838C010E94FA26AA2329F02A
:102230000E943724002309F09ACF9BCF00E00E9430
:10224000E60706E00E94960FF201408151819C0151
:1022500068817981060F171FDCCF813100E090077C
:1022600010F005E32FC00E94E607A0E007C0088138
:102270000A0F0E94A51F0E94DA26A395B0E0A817B6
:10228000B907A8F3ABCF813200E0900750F7082FD1
:10229000092B39F300E00E94E6070E9447219801CC
:1022A000AC01F201008111810E946F2FF2010081C7
:1022B0001181080F191F008311838C010E94FA26D7
:1022C0008DCF04E30E94D0072296EAE00C944A2FB7
:1022D000249608950E943F2FD901005BA1F002507F
:1022E00040F1035010F1025001F10A95F1F008504D
:1022F00000F1045040F000500350B8F00955A9F027
:10230000025099F016C08D919C91119700E00E94A7
:10231000960F8017910748F400E00E94960F2D91C8
:102320003C91200F311F3C932E9301E0E4E00C948C
:102330004C2F00E0FBCF0E943D2F2297402E888536
:102340009985488359830E943724002319F40E94F9
:102350003F24A1C05524042DE4EBF2E00C94E72EB9
:1023600053940E94D526D8019E01042DB3DF00238B
:1023700009F493C0652DAD019C01088119810E946B
:10238000A91B002321F70E94C10787C00E94D52600
:1023900024EC421611F461E001C060E0A8019C0148
:1023A000088119810E94C51B002369F3D0CF8130B9
:1023B000950511F005E36FC00E94AF26202F08811C
:1023C0001981053832E1130729F400912A06002308
:1023D00009F02460088119810E94641BE5CF0E94E6
:1023E000D526D80106E00E94960FAD019C016881B8
:1023F0007981060F171F0E94B41A002321F6A7CF78
:102400000E94D526280106E00E94960FD801A2015D
:102410009C0108811981A00FB11F90968D01EBCF0F
:102420000E94D526D8018C010197012B09F4ABCF6E
:1024300028813981F9013196E883F9831D91022FB2
:102440000E94971FF0CF0E94D526A8019C01088109
:1024500019810E94B41A002309F095CF0E945124DB
:102460001AC00E94D526A8010091EE02002331F483
:102470009C01088119810E94271D96CF61E08FCFB2
:102480000E94D5269801082F0E94141D002309F4EC
:102490007ACFE4CF04E30E94D0072296EAE00C94BE
:1024A0004A2FBA93AA93D8010091EF02002311F4A6
:1024B00001E307C00E944A210D931D932D933C9385
:1024C00000E0A991B99108951091EF02112311F440
:1024D00001E30895005059F00350A1F00A9551F01E
:1024E0000A9541F00A9551F00A9541F00EC00E94FC
:1024F000561B08958A010E948D1B08958A010E942F
:10250000321B08950E94241B089504E3089500E9F6
:102510002496089500E90895013011F000E8089527
:102520002330E1F71130D1F701E00E94E322089552
:10253000102F1A9511F000E808950E94F7220895CF
:1025400000E90895E0EFF2E000E002830091E2008C
:1025500004600093E20000E0008301E0018308953D
:1025600000916C0A002309F44CC00091F20208307B
:1025700008F447C000E00093F20202E00093E90093
:102580000091E800102F12FF3CC02091F20000E003
:1025900008C03091F10010E0F801ED50FD4F30839C
:1025A00003950217B0F30091E8000B7F0093E80059
:1025B0000091E8000F770093E80023E333E003EF96
:1025C00012E00E94D60301E00093E9000091E800C8
:1025D000102F15FFFBCF00E008C010E0F801ED5C04
:1025E000FC4F10811093F10003950034B0F300917B
:1025F000E8000E7F0093E8000091E8000F77009359
:10260000E80008950091F20203950093F202089504
:1026100008950D01602F70E0412F50E0640F771F87
:102620006134750714F000E00FC0402FA3E7B3E05A
:10263000A40FB51F04C0F90101919F010D93012F53
:102640001A950023C1F701E0D0010895003034E06D
:10265000130750F4F999FECF12BD01BD20BD0FB78D
:10266000F894FA9AF99A0FBF0895003024E01207FF
:1026700010F00FEF0895F999FECF12BD01BDF89A41
:1026800000B508950E943D2FD801C901542E44245D
:1026900007C08D01EADF1196FC010193CF0143943D
:1026A0004514B8F3E6E00C944A2FBA93AA93D801E4
:1026B00044E19D0104E010E00E9442130C910F3FA1
:1026C00039F444E150E020E832E08D010E946F2FA0
:1026D000A991B9910895E5E9F2E000E010E00087E2
:1026E00001870287038701E0048700831183128337
:1026F00013831483158316831783089500E00093D2
:1027000095023E9A469A089501E0009395023E9AFA
:1027100046980895BA93AA9359D000E212E00E9415
:102720003513A2EAB2E001FB66F401E05ED078D096
:102730000D911C911197083823E1120721F400E054
:1027400001C004E052D00091D70001600093D7008F
:102750000E94842D0E94A2120E947C010E94FB1400
:102760003E9A469808E813E112960D931C93009147
:10277000A902002309F0E6D00E948C2D0E94B0121D
:102780000E947D010E9405150E94E1210091A60290
:10279000002369F301E00093E9000091E800102FA5
:1027A00015FFFBCF02E310E00E9426020091D80043
:1027B0000F770093D80002E310E00E942602F894FD
:1027C00003E013D05DD00C940038D1CFF894A895D5
:1027D00004B7077F04BF00916000086100936000A8
:1027E00000E00093600078940895102F1F70163059
:1027F000B0F420E82093610010936100002311F4ED
:1028000000E103C0013021F408E00093A70208951D
:10281000043011F401E0F9CF00E00093A70208951D
:1028200006E800937A000EE500937C0004E610E0D1
:102830000E94110200917A00006500937A000091D5
:102840007A00102F14FFFBCF00917A0000650093EF
:102850007A0000917A00102F14FFFBCF00917800CE
:10286000109179000A3121E0120730F004EE1CE0EB
:102870000093A2021093A30200E000937A0008954F
:1028800000E000936E000093A8020895EAEAF2E0E7
:102890000081000F00831C9B03C000810160008346
:1028A00001811081101799F00F3F41F4108111231D
:1028B00029F4549A5C9800E001830895002339F4C8
:1028C00000810F3F21F454985C9A0FEF0183089523
:1028D0008A93FA93EA933A922A921A920A927A93F4
:1028E0006A935A934A933A932A931A930A938FB707
:1028F0000091A702083011F400E806BD0091A8027B
:10290000002309F0C3DF0091A4021091A502012B5E
:1029100041F0E2EAF2E002811381015010400283AB
:1029200013838FBF09911991299139914991599137
:10293000699179910990199029903990E991F991CB
:1029400089911895E2EAF2E000916C0A002319F0EF
:1029500000E00783089502811381012BC1F43E98A2
:1029600000E0078300E212E00E94351302FB7EF0D4
:102970000FEF009364000093650005E003BF8895A6
:1029800000E003BF00936400009365003E9A089541
:1029900003EB13E0009335041093360400E810E0D5
:1029A0000093330410933404089503EB13E0089567
:1029B000AD01E3EBF3E0E00FF11F118100E0D9017D
:1029C0000D931C93008110E0D9012D913C91200FB3
:1029D000311F3C932E9305E9018308E9008301E050
:1029E000DA010895E3EBF3E0E00FF11F89011183B1
:1029F000008301E008950E9470040E94A72700E070
:102A0000009337040093380408959A938A930E94A0
:102A1000A7260023A9F00E94AF260E3079F40E9469
:102A2000AF260E94BD26C8010093370410933804D6
:102A30000E94AF26202F8C0106D002C00E9454278E
:102A4000899199910895205039F02A9541F02151AA
:102A500049F02E5051F008950E94A10D08950E9452
:102A60002A0E08950E94750408950E945F08089533
:102A70000EE00E94DA2600913704109138040E947B
:102A80000A270895BA93AA9300E005C020E0E00F5A
:102A9000F21F20830395E9E3F4E00032B8F30FEF6F
:102AA00000A301A302A303A300E004A305A307A3BB
:102AB00000A706A307C020E0DF01A00FB21F999670
:102AC0002C9303950430B8F3E6E6F4E000E00083CD
:102AD000018302830E94C814A991B99108950091BD
:102AE000FB04002311F001E0089500E0089540E0A8
:102AF0004093F9044093FA044093FB04E9E6F4E0C0
:102B00000AC0008700830183028303830483058353
:102B1000068307833996042F4395003100E088F33C
:102B20000093FC0408950091FC040895ECEAF2E09F
:102B30002481358100E020303007C1F0428153818B
:102B40004030500799F02030300781F026813781DE
:102B50002030300759F0208531852030300731F0A2
:102B6000228533852030300709F001E00093FC0412
:102B700008950E943B2F2801390180E041E0A5D053
:102B8000D801012B61F0FD010085023039F401E02C
:102B900000870091FA040A950093FA043DC0A9E663
:102BA000B4E0E091FB04F0E00091F904E00FF81FBD
:102BB00071971CF000E031C01996082F8395003101
:102BC00020F4FD0100850023B9F7813198F78CEAE4
:102BD00092E082019301FC0140855185FA0109953B
:102BE000002341F3FC0102851385F8010995A80132
:102BF00060E070E0820193010E94BB2EFD0104831E
:102C0000158303E000874D925D926D927C92009156
:102C1000F90403950093F90401E0E8E00C94482FCF
:102C20000E943B2F00249091FB04E9E6F4E002C0EF
:102C30009A9539969923D9F0802D03948031B8F470
:102C400080858130B1F7408051806280738040166A
:102C500051066206730660F3408051806280738083
:102C6000441555056605770518F38F0102C000E08D
:102C700010E0E8E00C94482FBA93AA93F8010A8078
:102C80001B802C803D80399614E0E93FF107B8F4B1
:102C900000850130C1F70081118122813381041741
:102CA00015072607370778F30081118122813381C8
:102CB000001611062206330630F38F0102C000E031
:102CC00010E0A991B99124960895642F70E0509175
:102CD000FB04662319F04091F904540F552319F4AD
:102CE00000E010E00895E9E6F4E002C05A95399654
:102CF000552311F1472F73954031F0F44085413051
:102D000051F40080118022803380001611062206C3
:102D1000330691F05A95662351F34085433019F0FC
:102D20004085423021F700801180228033800016D8
:102D3000110622063306D1F6552391F28F0108952C
:102D400041E0C3DF202F212B11F400E00895F801AA
:102D50002085233081F420E0208726832783208369
:102D6000218322832383248325830091F9040A95F8
:102D70000093F9040EC02085213041F422E0208721
:102D80000091FA0403950093FA0403C00085023011
:102D9000E1F601E008959A938A93CA0140E095DF35
:102DA000202F212B11F400E00BC0F8012681378180
:102DB000FC0120833183F80100850130A1F701E097
:102DC00089919991089510E0E9E6F4E001C03996FF
:102DD000012F1395003128F4008501FFF8CF8F01F2
:102DE000089500E010E0089530E0E9E6F4E001C065
:102DF0003996232F3395203150F444815581401763
:102E00005107B1F7208521FFF3CF8F01089500E02E
:102E100010E008950E943D2F2801A0E0F201848176
:102E2000958127C00085023001F5468157810081D8
:102E3000118122813381E091B202F091B3020995B0
:102E400000E0F20100870683078300830183028389
:102E50000383048305830091FB040A950093FB041C
:102E60000091FA040A950093FA04A3958C01BCDF43
:102E70002801042D0529F1F0F2010085033091F6B7
:102E8000A2014A5F5F4F0081118122813381E0916D
:102E9000B002F091B102099501E0F20100870091C2
:102EA000F9040A950093F9040091FB04039500933B
:102EB000FB04DBCF0A2FE6E00C944A2F0E943B2F45
:102EC00000919502002339F54090F9040091FA042D
:102ED000400E11F401E020C00091FC040023A1F495
:102EE0001AC0FC0164807580ACEAB2E08301ED9108
:102EF000FC91119709958C018DDF401A8301FD012A
:102F000022813381F9010995442021F35CDFC80156
:102F1000012B39F7000000E0E8E00C94482F000096
:102F200000E00895000000E00895000000E008952A
:102F3000000000E0089500E0089500E010E008952A
:102F400000919502002319F0000000E0089540E090
:102F5000E9E6F4E00BC00085013039F402E00087B7
:102F60000091FA0403950093FA043996042F4395CF
:102F7000003198F40085033071F700E00087068384
:102F80000783008301830283038304830583009105
:102F9000F9040A950093F904E8CF01E008954091FF
:102FA0009502442319F0000002E3089500FB16F493
:102FB00006E30895DEDD002311F000E0089501E846
:102FC000089540919502442319F0000002E308950A
:102FD00000FB16F406E30895B3DE002311F000E0D1
:102FE000089500E808950E94392F280139018A8444
:102FF0009B84C201D301840F951FA61FB71F815068
:103000009040A040B040AC01BD010ADE17C0F801FD
:10301000408151819201421B530B9401240F351FB3
:103020005781F9015183F8014681F9014083BA9330
:10303000AA939A938A93A201B3011EDE202F212B1B
:1030400031F7ECE00C94462FFA93EA933A932A93E3
:103050001A930A933FB700917F050038C8F4209176
:10306000CE0000917D0510E0F801E350FB4F208376
:1030700000917D05039500937D0500917D05003845
:1030800011F410937D0500917F05039500937F0552
:103090003FBF0991199129913991E991F9911895B9
:1030A000FA93EA932A931A930A932FB70091820511
:1030B0000023D1F00091810510E0F801EC57FA4FA0
:1030C00000810093CE000091810503950093810556
:1030D00000918105003811F410938105009182055B
:1030E0000A950093820503C000E0009383052FBF7B
:1030F000099119912991E991F99118950E943C2F14
:10310000C801D901442E552E662EEDE7F5E000E00A
:10311000008301830383048316D08C019D0135D085
:10312000052D29D0042D1ED0062D13D00091C900E5
:10313000006C0093C9000091C90008610093C900A8
:10314000E7E00C94492F0091C900077E0093C90065
:1031500008951091CA00197F0370000F102B10936F
:10316000CA0008951091CA001F7C0295007F102BA1
:103170001093CA0008951091CA00177F000F000F26
:10318000000F102B1093CA0008950E94372F2801BA
:103190003901409161004F7000E014E224EF30E00B
:1031A0000E94B32E003442E414074FE0240740E0AD
:1031B000340749F40091C80002600093C8000CE095
:1031C0004093CD0027C04091C8004D7F4093C80078
:1031D00044E00E94AB2ED901A201B3019D010E94DF
:1031E000BB2E015010401093CD000093CC00420143
:1031F0005301B694A7949794879480149104A204E1
:10320000B30450F40091CC001091CD000F5F1F4F1C
:103210001093CD000093CC00ECE00C94442FAD0152
:10322000102FEDE7F5E00681002329F41093CE007E
:1032300001E0068318C001E0F8942581203888F465
:10324000238130E0D901AC57BA4F1C9313811395F9
:1032500013831381103809F4338315811395158373
:1032600001C000E07894DA01089500917F05089587
:103270009D0100E0F894EDE7F5E01281112389F05B
:10328000018110E0D801A350BB4F0C91118113951F
:1032900011831181103811F410E0118312811A95F5
:1032A00012837894D901089506E00E94960F0C5E6F
:1032B0001F4F0E942F1F20E030E03695179507958D
:1032C0000150104020403040E9E3F4E000A311A396
:1032D00022A333A3089506E00E94960FE9E3F4E0E9
:1032E00040A151A19A01220F331F0C5E1F4F0E9473
:1032F0006E1F0895D9DF00E000935D0408950091EA
:103300005D04002341F0E7DF00E000935D0410E07E
:103310009FD00E94CF230895102F09E00E94971F8D
:1033200005E010E00E9411020E943724089511E088
:1033300004E00E94971F0E943724089505E00E9430
:10334000A51F00FB16F401E0089500E0089505E0D4
:103350000E94A51F04FB16F401E0089500E0089503
:103360000DE00E94A51F08950BE00E94A51F04FB1D
:1033700016F401E0089500E008950BE00E94A51FF7
:1033800003FB16F401E0089500E008950BE00E94AD
:10339000A51F02FB16F401E0089500E008950BE07C
:1033A0000E94A51F01FB16F401E0089500E00895B6
:1033B0000BE00E94A51F00FB16F401E0089500E059
:1033C00008950CE00E94A51F0770089506E00E9472
:1033D000960F045F1F4F0E942F1F0895002311F0C6
:1033E00019E501C010E008E00E94971F08958A9334
:1033F00001E0F4DF84E60BE00E94A51F05FB5EF40C
:1034000000E0ECDF84E60BE00E94A51F05FB46F020
:103410000E943F2403C08A9571F70DE389910895B6
:103420008A9589F7FACF8A93802F06E00E94960F3B
:10343000282F085F1F4F0E94481F12E004E00E94DF
:10344000971F0E9437248991089504E0ECDF0895C6
:103450009A938A93C80106E00E94960F9C01005F30
:103460001F4F0E946E1F0E943724899199910895E1
:103470000E943D2F2801C901DA011AD0002300E083
:10348000A1F00E94960F0150104040225122BA93A1
:10349000AA93880F991FAC0160E070E0820120E0E0
:1034A00030E00E94F3170E943724E6E00C944A2F84
:1034B0000E943F2FD901CA01A13820E0B20718F0BD
:1034C000000000E011C00E94B71F0E9437240023B3
:1034D000C1F3A23000E0B00718F08D010E949D20DA
:1034E0009C018D010E944820E4E00C944C2F0E9426
:1034F0003D2FC8012901DA0101E0401600E0500625
:1035000039F48C010E941A1F0C930E94372429C0A1
:1035100002E0401600E0500651F48C010E941A1F90
:103520000C9301968C010E941A1F1196EDCF01E0B9
:103530004016500618F0000000E013C08C010E94F5
:10354000B71F0E9437240023B9F302E0401600E0C1
:10355000500618F082010E949D209D0182010E9468
:103560003D20E6E00C944A2F0E943D2FC80129011E
:10357000DA01042D052909F4000001E0401600E0FD
:10358000500631F42C918C010E94481F01E022C0AA
:1035900002E0401600E0500641F42C918C010E949C
:1035A000481F11962C910196EECF01E0401650066F
:1035B00018F0000000E00EC08C010E94B71F0E94AE
:1035C00037240023B9F382010E949D209D018201CE
:1035D0000E94CF1FE6E00C944A2F0E943F2F822FBB
:1035E000DA01813051F42C9130E011965C91230F77
:1035F000351F0E946E1F01E013C0813818F00000D3
:1036000000E00EC00E94B71F0E9437240023C1F3C0
:10361000082F10E00E949D209D01082F0E9402208B
:10362000E4E00C944C2F980102E00E9476200E9466
:10363000372408958A93802F04E00E94960F282F44
:103640000E94481F899108950AE0DAD0002311F4FE
:103650000CE3089506E0EEDF0AE0D2D00023C1F3C8
:1036600000E008950E943D2FD8010AE0C9D0002350
:1036700011F40CE318C003E00E94960F280180E0CB
:1036800090E007C02FEF8D01080F191F0E94481FFF
:10369000019684159505B0F302E0CCDF0AE0B0D0C6
:1036A000002339F300E0E6E00C944A2F0AE0A8D0AA
:1036B000002311F40CE3089505E0BCDF0AE0A0D07C
:1036C0000023C1F300E008950E943E2FD801422E4E
:1036D0000AE096D0002311F40CE31CC004E00E9421
:1036E000960FC8012A2F085F1F4F0E94481FAB2F5B
:1036F0002A2F8C01075F1F4F0E94481F242D06961A
:103700008C010E94481F07E095DF0AE079D0002372
:1037100019F300E0E5E00C944B2F9A938A93C801CB
:103720000AE06ED0002311F40CE310C000E00E9408
:10373000960F802B912B21E08C010E94481F02E004
:1037400079DF0AE05DD0002379F300E08991999157
:1037500008950E943C2FC801D9012A01662E02E07B
:103760000E94760110E0A017B10711F005E30AC02E
:10377000662011F063E001C061E071E0A2019D01EB
:103780008C010BD0E7E00C94492F662311F063E025
:1037900001C061E070E001D008950E943B2FC80194
:1037A0002901DA01662E772E0AE02AD0002311F4CF
:1037B0000CE323C004E03EDF0AE022D00023C1F383
:1037C0007720AD0171F056944794242D8C0105DFCC
:1037D000002311F001E001C000E0002339F40FEFF5
:1037E0000CC092018C01C0DE0023C9F3062D22DF3C
:1037F0000AE006D00023E1F200E0E8E00C94482F54
:103800000E943F2F04E00E94960FD8018AE004C076
:1038100002E010E00E9426028D010E5F1F4F0E9401
:103820001A1F037011F401E005C0082F8A950023C8
:1038300079F700E0E4E00C944C2F8A9360979E01A6
:10384000285F3F4F8901ECEAF0E048E050E00E9439
:103850002C2F9E01285F3F4F00E00E94592007E077
:103860000E94A51F03FB16F005E43AC086DD002385
:10387000D9F49E018901E4EBF0E048E050E00E94B9
:103880002C2F00E00E9459200E943724002319F4B5
:103890000E943F2425C007E00E94A51F04FB26F7D5
:1038A0000E9437240023A1F301E098DD05E010E039
:1038B0000E94260200E092DD05E010E00E94260250
:1038C0008AEF04C004E010E00E94260271DD0023AC
:1038D00011F400E005C0082F8A95002399F70CE346
:1038E0006096899108959A938A9328970E94372425
:1038F000002319F40E943F2474C063DD802F8130BF
:1039000071F44DDD002359F49AEF5BDD802F813097
:1039100031F4092F9A950023C1F703E462C00091A6
:10392000EB02002329F000E00093EB0286DFE2CFF8
:10393000843099F322DD002311F000E052C00E9490
:1039400037240023B9F204E60E949223002311F4E5
:1039500006E447C02DDD002311F004E442C00E94BC
:103960003724002339F209DD002339F70E94372478
:10397000002301F29E018901ECEBF0E048E050E009
:103980000E942C2F00E00E9459200E94372400231F
:1039900009F4B0CF07E00E94A51F04FB16F005E470
:1039A00020C001E01BDD05E010E00E94260200E0DF
:1039B00015DD05E010E00E9426020E943724002356
:1039C00009F498CF8AEF04C004E010E00E942602B8
:1039D000D4DC002309F0B1CF082F8A950023A1F78A
:1039E0000CE3289689919991089528979E01890161
:1039F000E4ECF0E048E050E00E942C2F00E00E9450
:103A0000592007E00E94A51F01FB16F005E401C044
:103A100000E02896089501E0E1DC05E010E00E9456
:103A2000260200E0DBDC0895085029F0085049F038
:103A3000005149F00AC000E00E9459200E943F2432
:103A4000089501E0F9CF02E0F7CF05E308950E9461
:103A50003C2F28972801C901DA019E018901ECEC6D
:103A6000F0E048E050E00E942C2F00E00E94592036
:103A70000E943724002309F462C007E00E94A51FBA
:103A800005FB16F005E45DC00E943724002309F40D
:103A900056C0ADDC002309F054C00E943724002337
:103AA00009F44DC00AEF602E04C004E010E00E944B
:103AB00026026CDC002329F00E943724002361F4E5
:103AC0003EC00E9437240023D1F1062D6A940023C2
:103AD00061F78DDC0CE335C0AD019C01820144DD52
:103AE000002311F401E72DC00E943724002339F18F
:103AF00012E00AE00E94971F0E9437240023F9F089
:103B00000AEF602E08C0062D6A94002311F304E02A
:103B100010E00E9426023ADC002349F410E207E09C
:103B20000E94971F0E943724002331F408C00E948E
:103B30003724002341F703C05ADC002311F40E940C
:103B40003F242896E7E00C94492F01E00E94A51F2E
:103B50000895015069F00A9569F00A9569F00A958F
:103B600049F00A9559F00A9559F00A9559F00CC098
:103B700007E108950CE1089509E1089505E4089529
:103B800008E308950AE1089500E00895479840E0A9
:103B900076981D9100000000000000000000000069
:103BA000000000000000179518F00000769803C090
:103BB000769A43950000000000000000000000001D
:103BC0000000000000000000179518F00000769833
:103BD00003C0769A4395000000000000000000003A
:103BE00000000000000000000000179518F0000021
:103BF000769803C0769A439500000000000000000C
:103C0000000000000000000000000000179518F000
:103C10000000769803C0769A4395000000000000EB
:103C200000000000000000000000000000001795E8
:103C300018F00000769803C0769A439500000000C3
:103C40000000000000000000000000000000000074
:103C5000179518F00000769803C0769A43950000F7
:103C60000000000000000000000000000000000054
:103C70000000179518F00000769803C0769A4395D7
:103C80000000000000000000000000000000000034
:103C900000000000179518F00000769803C0769A8F
:103CA000439500000000000000000000000000003C
:103CB00000000000479520F000000000769802C048
:103CC0000000769A000000000000000000000000E4
:103CD000000000000000000000000000769A40E4B0
:103CE0004A95F1F70A9540E0041351CF0895B09A30
:103CF00011E010938500109384001093810060E020
:103D0000B09996C06699FCCF479A669961604798CA
:103D10000000000030E010E01695000000000000F8
:103D2000479A66991068479800000000000000005C
:103D3000000031271695000000000000479A6699A0
:103D400010684798000000000000000000003127C4
:103D50001695000000000000479A66991068479881
:103D60000000000000000000000031271695000050
:103D700000000000479A669910684798000000000C
:103D80000000000000003127169500000000000030
:103D9000479A6699106847980000000000000000EC
:103DA000000031271695000000000000479A669930
:103DB0001068479800000000000000000000312754
:103DC0001695000000000000479A66991068479811
:103DD00000000000000000000000312716950000E0
:103DE00000000000479A669910684798000000009C
:103DF000000000000000312700000000000070E813
:103E0000479A66993727479837FD68600000000099
:103E1000000000000000000000000000479A669BC0
:103E2000626047981D930A9509F061CF062F0895A7
:103E300004600895249725E5288324E02983202F12
:103E40002A83012F0B8331E024E08E010E94962407
:103E5000002311F0088101C000E024960895249702
:103E600025E5288325E02983202F2A83012F0B8332
:103E700032E024E08E010E949624002329F019816B
:103E800000E02881022B02C000E010E02496089593
:103E90008A932497822F25E5288324E42983202FE1
:103EA0002A83012F0B8331E024E08E010E949624A7
:103EB000002389F00881003471F4888331E021E027
:103EC0008E010E949624002331F00881003419F0FD
:103ED00007E40E9449242496899108959A938A932D
:103EE0002497C90125E5288325E42983202F2A83E7
:103EF000012F0B8331E024E08E010E9496240023E1
:103F000091F00881003479F48883998331E022E0CC
:103F10008E010E949624002331F00881003419F0AC
:103F200007E40E9449242496899199910895239742
:103F300025E528830F70006C09831A8330E023E0A5
:103F40008E010E94962423960895229715E51883E2
:103F50000F700068098331E022E08E010E949624F0
:103F6000002311F0088101C000E0229608952597F2
:103F700025E5288329E62983202F2A83012F0B8317
:103F800031E024E08E010E949624002331F0088164
:103F9000003419F007E40E944924259608950E94F0
:103FA0003F2F2397C801D90105E5088304E609835B
:103FB0000C910A8331E023E08E010E9496240023B5
:103FC000B9F008810034A1F411960197082F092B4C
:103FD00069F031E021E08D010E949624002311F464
:103FE00000E00CC00C91003479F305C001E006C07C
:103FF00008810034A9F307E40E9449242396E4E0F1
:104000000C944C2F0E943D2F2497802FD90105E559
:10401000088305E60983FD010191DF010A830D9103
:104020000B8331E024E08E010E9496240023D9F016
:1040300008810034C1F42D0104C002E0400E00E00C
:10404000501E8A9571F031E022E082010E94962490
:10405000002311F400E00DC0F2010081003469F387
:1040600005C001E006C008810034A1F307E40E9406
:1040700049242496E6E00C944A2FF90125E5208393
:1040800024E22183302F22E08F010E94962408959C
:10409000F90125E5208325E22183302F330F22E02B
:1040A0008F010E949624002311F001E0089500E0A2
:1040B00008950E94402F2297A02FC90105E508838B
:1040C0000A2F006E098330E022E08E010E949624C0
:1040D00030E04A2F08E010E00E94912E202F8C0142
:1040E0000E9496242296E3E00C944D2F9A938A9393
:1040F000A197C90115E51883102F146E1983402F5D
:1041000008E010E00E94912E302F22E08E010E94E4
:10411000CD24002311F001E001C000E0002311F4E0
:1041200000E007C040E250E09E018C010E946F2F2A
:1041300001E0A1968991999108952497015010402A
:1041400025E5288321EA29830A831B8330E024E0C4
:104150008E010E94962424960895E4E0F6E001A7DB
:1041600012A701E003A7089500912F06002349F04C
:1041700000912D0610912E060E94281A00E000934F
:104180002F060895BA93AA93E4E0F6E000E00093C6
:104190000406009330060093050608C020E0A4E062
:1041A000B6E0A00FB21F12962C9303950032B0F325
:1041B0000FEF009326060093270604A305A300E053
:1041C00007A300A701A702A700932F06E1E3F6E0EB
:1041D00004830583008301830283038301E0068354
:1041E00000E212E00E94351300FB16F401E001C06A
:1041F00000E000932A06A991B99108959A938A93B1
:1042000006E016E00E94131B0023F1F142E050E0AB
:104210002EE036E008EB12E00E94572F012B29F424
:104220000091100600530093260642E050E021E181
:1042300036E00BEB12E00E94572F012B29F400917E
:104240001306005300932706009116060D34E1F47F
:104250008091150690E0C09748EE53E08C010E94D3
:10426000892EE4E0F6E004A315A38091170690E000
:10427000C09744E650E08C010E94892E24A135A10C
:10428000200F311F24A335A389919991089506E049
:1042900016E00895E4E0F6E00581302F20E010E01C
:1042A00000E06481262B4381142B4281042B089566
:1042B0000091040608958A93802F0E9442150E945F
:1042C000BD19002331F404E62DD2002311F406E4D5
:1042D00051C00E94D819002311F004E44BC00E9481
:1042E000F51C002309F046C00E94841300E00093EF
:1042F00096020093980255D0882331F0D8D10E94BD
:104300007E130E947A193FD00E943F24002381F53A
:104310000E94771501E512E20093AC021093AD0202
:104320000FE612E20093AE021093AF020DEA12E222
:104330000093B0021093B10200EC12E20093B202BB
:104340001093B30203ED12E20093B4021093B5028E
:104350000EED12E20093B6021093B7020E9496157A
:104360000E949315002309F4000001E00093040665
:104370000E943F24899108951CD000E00093040618
:104380000E943F24089560912B0670912C0641E015
:10439000E9E3F4E000A111A122A133A10E941808D1
:1043A000089500913006002319F401E000933006CF
:1043B000089500913006002319F000E000933006C4
:1043C0000895229700913006002309F468C070DF39
:1043D00010919502012309F462C00E94B4190023D0
:1043E0000091960239F0002371F401E000939602E7
:1043F00011E006C0002339F000E00093960210E0BF
:1044000001E10E94650F0E94A7191091E8020123A3
:1044100021F00E94B0190E9441080E949E190023B9
:10442000F1F10E947E13C6D10E947A19D1D10023E6
:1044300019F4D3D1002399F000E008830983AE0179
:10444000E9E3F4E000A111A122A133A1000F111FA3
:10445000221F331F0E94CB16002309F0A0D1B1D137
:104460000023B1F09CD100E008830983AE01E9E3A9
:10447000F4E000A111A122A133A1000F111F221FFE
:10448000331F0E94CB16002319F00881198165DEC5
:104490007ADF00E0E1D0002311F000E0A8D02296FE
:1044A00008950E943D2F280102E00E947601409E5F
:1044B000C001509E900D00E00E94960F800F911F4A
:1044C0000E94D514280102E00E947601A201202F4B
:1044D00030E08C010E94771AE6E00C944A2F0E948B
:1044E000392F280104E00E94960F3801D301199654
:1044F0008D010E941A1F902F80E008E0600E781E48
:1045000083010E941A1F800F02E00E947601402F53
:1045100050E082010E94892E280100E00E94960F3F
:10452000400E511E0E94D514480102E00E947601FF
:1045300061E0A401202F30E082010E94A91B282FF6
:1045400083010E94481F892F282F8D010E94481F38
:104550000E943724EAE00C94462F0E943F2FCA01A4
:10456000D80102E00E947601E02FF0E03197AE23FF
:10457000BF239C018D010E94D814E4E00C944C2FC1
:104580000E943F2FCA01D80102E00E947601E02F6D
:10459000F0E03197AE23BF239C018D010E94F214FD
:1045A000E4E00C944C2F003040E8140740E024076E
:1045B000340710F000E0089501E0089502E00E9441
:1045C000760110E0089510919502112319F0000072
:1045D00002E30895416012E0019FF001EF5CF94FA2
:1045E0004083518301E00093370600E00895109165
:1045F0009502112319F0000002E3089520E012E073
:10460000019FF001EF5CF94F2083218301E00093CB
:10461000370600E008950E943F2FA1E3B6E0009125
:1046200037060023B1F006E00E94960F2D913C91D1
:1046300011970E946E1F06E00E94960FC801129605
:104640002D913C9104968C010E946E1F00E0009316
:104650003706E4E00C944C2F12E0019FF001EF5C70
:10466000F94F0081017008950E943E2FC801D901C1
:10467000442E0E945E1778DD0E947F19442041F08D
:10468000880F991FAA1FBB1FAC01BD0100E09BDF73
:10469000C2DF02E00E94131A0E943724002311F0A7
:1046A0000E9484130E943F24E5E00C944B2F00915C
:1046B0000406002311F403E20895009195020023FB
:1046C00011F461DE13C00E949719002319F40E94AF
:1046D0003F24089504E60CD0002311F40CE3089560
:1046E0000E943724002311F401E6089500E00895A4
:1046F0000E943F2F88EE93E0A0E0B0E00E949E1958
:10470000002311F001E00BC08C019D01815090400D
:10471000A040B040012B022B032B81F700E0E4E026
:104720000C944C2F0E943F2F80E197E2A0E0B0E074
:104730000E94CF19002311F001E00BC08C019D01F4
:1047400081509040A040B040012B022B032B81F7F9
:1047500000E0E4E00C944C2F0E945E1705DD0E94FF
:104760007F190E94251A0E9484130E943F240895F5
:104770009FDD002311F403E208950E949E19002397
:1047800011F40E9497190E947E130E945E170E94E6
:10479000F7190E9484130E943F24089508950E94EF
:1047A000251A0AE0A5DF002311F400E508950E9410
:1047B0003F2408950E94E61900932B0610932C06BF
:1047C0000895E4E0F6E000A505FB00E000F9089597
:1047D000E4E0F6E000A501700895E4E0F6E007A14A
:1047E000000F00E0001F0895219701E00093BE0232
:1047F0000E94D82469D018E003E00E94971F10E8B7
:1048000002E00E94971F00E00E94A51F088337D096
:10481000002329F500E00E948C1900E00E94A51FEA
:1048200008832DD00023D9F400E00093BE02B7D056
:1048300010E802E00E94971F00E00E94A51F088375
:104840001ED0002361F410E802E00E94971F02E0EE
:104850000E94A51F08830881003809F000000FD0CE
:104860002196089514E003E00E94971F0895009197
:10487000BF02002311F401E0089500E008950091C3
:10488000BE02002319F00E94D52408950091BF02B2
:1048900008950093BF02002311F000E0089501E0A5
:1048A00008958A93ECDF802F882359F000E0F1DF30
:1048B0009BDF0E94A51D0770882319F00E94A91D87
:1048C000802F082F899108959A938A9376986E9AEB
:1048D00009E110E00E942602769A01E010E00E94B1
:1048E00026026E98769A02E310E00E9426027698DD
:1048F0006E9A09E110E00E942602769A01E010E02B
:104900000E9426026E98769A8FEF9FEF669B06C0F4
:1049100004E610E00E94110201E005C00197082F93
:10492000092BA1F700E08991999108950E943C2FED
:10493000C801432E0091BE02002339F08C010E9471
:104940004825002331F101E025C055246090E200A4
:104950005092E200F8946E9A022FDC010E94C61D6C
:104960006E98769A442029F0042DDC010E94771E6F
:10497000502E6092E2007894552029F353FA16F4F1
:1049800007E105C052FA16F409E101C00AE10093FB
:10499000BF0200E0E7E00C94492FC8DF08956E984D
:1049A000769A00E00093BF02089500913B060895B7
:1049B000769A6E9A00E00093380600E200936A004F
:1049C00000E00093C10000E40093D10004E00093F4
:1049D000720000E000933B060895102FE8E3F6E034
:1049E00001E00083118300E0028304830093BE0092
:1049F00002E00093C100789400E412E42FE030E07C
:104A00004081413069F4A801B901015010402040B3
:104A10003040452B462B472B99F7038104600383D5
:104A200000E00093C10008950D01D80100E40CBB23
:104A30000CBB04E009BB08E30093BE00EE9AE8E378
:104A4000F6E000E001830283048302E0008300E8D3
:104A500014E82EE130E04081442369F0A801B90157
:104A60000150104020403040452B462B472B99F7F2
:104A700003810460038301810C9300E00093C10073
:104A80000381002311F401E001C000E0D00108958A
:104A90000E943B2FC801522E632E442443947090F1
:104AA000E20000E00093E200DC016E9A04C0FC0129
:104AB0000191CF0192DF052D5A940023C1F76E9822
:104AC000769A04C08D01B0DF1196402E062D6A94AF
:104AD000002311F04420B1F77092E200042DE8E0C9
:104AE0000C94482F1A930A931FB70091380602308E
:104AF00031F402E00093C10003E000933806EE9821
:104B00001FBF099119911895FA93EA932A931A9362
:104B10000A932FB7E8E3F6E0128113951283012F71
:104B20001081113001F5013011F476984BC00A3034
:104B300029F4048100FFF9CF769A44C00B3031F498
:104B4000769A00E000830093C1003CC0018100FF21
:104B500005C0769A04810395048301C0769801818B
:104B6000069501832FC01081133061F52B9A10E058
:104B7000669911E02B98013031F4112319F103816A
:104B8000016003831FC00A3039F4048101700117EA
:104B9000C9F003810860F5CF0B3049F400E00093C1
:104BA000C1000083112371F403810260EACF018107
:104BB00006950183112331F001810068018304818E
:104BC000039504832FBF099119912991E991F991D6
:104BD00018950091D8000F770093D8000091D80065
:104BE00000680093D8000091D80000610093D800BD
:104BF000789408950091D80000620093D80002B71D
:104C0000007F02BF02B70A6402BF02E109BD09B515
:104C1000102F10FFFCCFF8940091D8000F7D009367
:104C2000D8000091E0000E7F0093E0000091E000CA
:104C3000077F0093E0000E94D5270091E200016009
:104C40000093E2000091E20008600093E200789493
:104C500008950091D900102F10FF19C000913D0652
:104C60000023A9F401E000933D06EDE6FAE000819F
:104C700011810260118300830091D80000680093C5
:104C8000D800B8DF0091E0000E7F0093E0000091B3
:104C9000D900102F10FD1AC000913D060130B1F46B
:104CA00000E000933D0600936C0AEDE6FAE0008117
:104CB00011810460118300830091E0000160009382
:104CC000E0000091D80000620093D800EDE6FAE021
:104CD00000811181012F00FF0DC0008111811E7F15
:104CE0001183008301E00093EA0000E00093EA00F2
:104CF00000936C0A00E00093E9000091E800102F97
:104D000013FF02C00E94E02A0895E0ECF2E0048163
:104D1000002339F40FE316E00083118301E00483DC
:104D2000089500E008950091C502002311F001E00C
:104D3000089500E00895E0ECF2E000E005830283CE
:104D400003830FE316E00083118301E008950091CF
:104D5000C402002311F001E0089500E008951B2F24
:104D60002A2FE0ECF2E0A081B1810D91A083B18304
:104D7000A22FB12F0895F3DF08958A93FCDF802FCF
:104D8000FADF282F302F8901899108950E943F2F43
:104D9000F4DFC801A0E0B0E0F0DF8A0FA01FB11F70
:104DA0008C019D01E4E00C944C2F0091C002109105
:104DB000C1020895E091C002F091C1020083E0ECCD
:104DC000F2E0008111810F5F1F4F00831183028188
:104DD00013810F5F1F4F028313830895E0ECF2E00D
:104DE00000E0028303830FE316E0008311830E9437
:104DF00038150895E0ECF2E022813381200F311F55
:104E000022833383089501E00093C5020895D2DF21
:104E100001E008950E94402FC801F9DFA02F892FDB
:104E2000082FF5DF002311F001E001C000E0A0230E
:104E30000A2FE3E00C944D2F0E943E2FD901EADFA8
:104E4000402E8A2F9B2F8C01E5DF002311F001E01B
:104E500001C000E04022042DE5E00C944B2F0E949D
:104E60003F2FC801D901813002E0900728F00000EF
:104E700000E007C00D919EDF8C010197012BD1F757
:104E800001E0E4E00C944C2F00EC12E00895E0EC1B
:104E9000F2E00281138120813181021B130B2FE389
:104EA00036E0020F131F089500E00093C402089536
:104EB0005AE00934150709F00000302F312B69F052
:104EC000F8013181303148F44181342F33953183F9
:104ED00050E0040F151FF801228308950E943F2F10
:104EE000C801D901E5DFAB2F2A2F8C01E1DFE4E017
:104EF0000C944C2F0E943D2F2801CA01DB019C011C
:104F0000EDDF8A2F9B2F9C018201E8DFE6E00C9405
:104F10004A2F0091490A013019F400E010E0089589
:104F200009E41AE0089501E00093490AE9E4FAE08F
:104F3000048915890F5F1F4F048B158B089500910D
:104F4000490A013011F401E0089500E00895E9E410
:104F5000FAE000E000830EE0028300E003830489AE
:104F600015890483158304E00183089500914A0A9A
:104F700008950BE41AE008952091EB00216020933E
:104F8000EB000093EC000091ED000270012B009308
:104F9000ED000091ED0002600093ED001091EE0035
:104FA000012F000F00E0001F089500E00093E900CA
:104FB0000091EB00102F00E010FD05C00093E90008
:104FC00010E202E0D9DF0895E6ECF2E0048100236C
:104FD00071F00681002311F051E001C050E06085BE
:104FE000478100811181228133810E947E180895BA
:104FF0000091CA02002311F00E94A3180895202FE7
:105000000091F1003091F100213869F4163059F423
:10501000432F415219F04A9519F005C066D201C0DC
:10502000EDD001E008952132F9F5412F4950A9F161
:105030004A95B9F1465119F0425019F035C0ACD13A
:10504000F0CF1091E800177F1093E8001091E8006E
:105050001E7F1093E8000093CB02E6ECF2E005819E
:1050600000FF11C00091CA02002389F401E00093FF
:10507000CA02AADF549A5C9808EC10E00E94110260
:1050800054985C9A04C0B4DF00E00093CA02009117
:10509000E800102F10FFFBCFC4CF323029F419D114
:1050A000C0CF132F35D1BDCF213A41F4125021F09A
:1050B0001F5121F4E4D1B5CF41D1B3CF00E0089521
:1050C00001E00093E90010E301EC0E94BC2702E03C
:1050D0000093E90010E300EC0E94BC2703E000937A
:1050E000E90010E301EC0E94BC2704E00093E90012
:1050F00010E301E80E94BC2705E00093E90010E3FB
:1051000000E80E94BC27089500E00895202F212B7D
:1051100079F401E00093E9000091EB000061009355
:10512000EB0002E00093EA0000E00093EA0011C007
:10513000013020E0120799F403E00093E9000091A8
:10514000EB0000610093EB0008E00093EA0020937D
:10515000EA000091EB0008600093EB000895023034
:10516000120791F404E00093E9000091EB00006164
:105170000093EB0000E10093EA002093EA00009125
:10518000EB0008600093EB0008950330A9F5105080
:1051900049F01A9569F01A95B1F01A95D1F01A955F
:1051A00029F12AC004E00093630A03E911E005C075
:1051B0000CE00093630A01E511E00093600A10938C
:1051C000610A01E0089500E20093630A0DE511E031
:1051D000F4CF01E911E00093600A1093610A01E045
:1051E0000093620A0AE20093630AEBCF04E10093A2
:1051F000630A0DE711E0E1CF00E00895AC012297CA
:105200000091F1000091F10003E20093630A07E9C5
:1052100011E00093600A1093610A0091F100088385
:105220000091F10009830091E800077F0093E800F6
:10523000888199818432904028F508810093630A1F
:1052400021C0E091600AF091610A04910093F1009D
:10525000E0E6FAE0208131812F5F3F4F20833183E8
:105260000091630A0A950093630A0091630A002380
:1052700021F0012F1395003221F70091E8000E7FF5
:105280000093E8000091630A002361F00091E800B8
:10529000102F12FD07C00091E800102F10FFFBCF68
:1052A00010E0E3CF0091E800102F12FD05C000913F
:1052B000E800102F12FFFBCF0091E8000B7F009356
:1052C000E8000091E8000F770093E8002296CA01F9
:1052D00008950091E800077F0093E8000091E8003E
:1052E0000E7F0093E8000091E800102F12FFFBCF23
:1052F0000091E8000B7F0093E8000091E8000F7731
:105300000093E8000091E8000E7F0093E800089504
:105310000091F1000091F1000091E800077F0093F7
:10532000E80010935F0A0091E8000E7F0093E80008
:105330000091E800102F10FFFBCF089522970091F5
:10534000F1000091F1000091F10008830091F1005B
:1053500009830091E800077F0093E8000881198124
:10536000012B49F000915F0A0093F1000091E800E1
:105370000E7F0093E8000091E800102F12FFFBCF92
:105380000091E8000B7F0093E8000091E8000F77A0
:105390000093E800229608950091E800077F0093AB
:1053A000E8000091E800102F12FFFBCF0091F10000
:1053B0000093C6020091F1000093C7020091F10032
:1053C0000093C8020091F1000093C9020091F1001E
:1053D0000093CC020091F1000093CF020091F10004
:1053E0000093D0020091E8000B7F0093E800009149
:1053F000E8000F770093E8000091E8000E7F00932B
:10540000E8000091E800102F10FFFBCFE6ECF2E07F
:1054100000811181228133810E94C5180091CC0244
:10542000002311F001E001C000E00E94BB180091D0
:10543000D002055029F00A9529F00A9529F006C0F6
:1054400000E005C001E003C002E001C003E00093FA
:10545000CE020091CE020E94A9180091CF02015005
:1054600021F00A9521F000E003C003E001C002E052
:105470000093CD020091CD020E94B21808950091D0
:10548000E800077F0093E800E6ECF2E0008100937B
:10549000F10001810093F10002810093F10003818A
:1054A0000093F10006810093F10001850093F10063
:1054B00002850093F1000091E8000E7F0093E80060
:1054C0000091E800102F10FFFBCF0091E800102F93
:1054D00012FFFBCF0091E8000B7F0093E8000091E2
:1054E000E8000F770093E8000895AC01229700913F
:1054F000F1000091F10009E00093630A08EF10E069
:105500000093600A1093610A0091F10008830091F2
:10551000F10009830091E800077F0093E80088818B
:1055200099818A30904028F508810093630A21C050
:10553000E091600AF091610A04910093F100E0E6C5
:10554000FAE0208131812F5F3F4F2083318300912A
:10555000630A0A950093630A0091630A002321F00D
:10556000012F1395003221F70091E8000E7F009380
:10557000E8000091630A002361F00091E800102F19
:1055800012FD07C00091E800102F10FFFBCF10E0C4
:10559000E3CF0091E800102F12FD05C00091E80054
:1055A000102F12FFFBCF0091E8000B7F0093E80063
:1055B0000091E8000F770093E8002296CA01089551
:1055C0009A938A930091E8000B7F0093E800809102
:1055D000F1009091F100092F005049F10A9509F16D
:1055E000025011F10250A9F00A9549F0025069F0F9
:1055F0000A9599F00A95F1F00A9501F124C08038D6
:1056000011F56ED0002391F51EC08038E1F435D13C
:105610002DC08823C1F42DD029C08823A1F447D000
:10562000F1CF082FD2D1EECF082F8ED1EBCF082F9C
:1056300047D1E8CF813839F40ED2E4CF813019F464
:105640003BD2002399F4192F082F0E94FF27002333
:1056500069F40091EB0000620093EB000091E80018
:10566000077F0093E80001E00093640A8991999113
:1056700008951091F1000091E30000781F77012B4D
:105680000093E3000091E800077F0093E800009199
:10569000E8000E7F0093E8000091E800102F10FF53
:1056A000FBCF0091E30000680093E30008951091A0
:1056B000F100123010F000E008950091E800077F3B
:1056C0000093E80010936C0A0091E8000E7F0093AD
:1056D000E80000916C0A0E946028469A01E0089553
:1056E0000E943D2F649790E01091F1000091F1002D
:1056F000202F215019F02A9549F12EC002E1009384
:10570000630A04ED10E0E0E6FAE000831183009103
:10571000F1000091F1000091F10008830091F10087
:1057200009830091E800077F0093E80000E6402E1F
:105730000AE0502E0091630A10E028813981021797
:10574000130780F40F7189F491E00FC00BE600930A
:10575000630A06EE10E0D7CF0E94C5280023B9F6F1
:1057600000E087C008810093630A0091E8000F7E83
:105770000093E800A0E08091630A8E010E94551317
:105780008E0105C02091E8002E7F2093E800209133
:10579000630A222309F449C02091E800322F34FD26
:1057A00044C02091E800322F30FD05C02091E80070
:1057B000322F34FFF6CF40E012C0F2012081318158
:1057C000F90124912093F100F201208131812F5FB2
:1057D0003F4F20833183F20123812A952383509107
:1057E000630A5523E9F0242F43952032C9F0209114
:1057F000620A222311F3252F30E0E82FF0E03197E1
:105800002E173F07D4F62A2FA39520FB1EF43093C2
:10581000F100E1CFF80121918F012093F100DBCF5E
:105820002091E800322F34FFADCF00E00093620AF0
:10583000913079F40091E800102F14FD0AC0009116
:10584000E800102F10FFFBCF0091E8000E7F0093BF
:10585000E8000091E800102F14FFFBCF0091E80052
:105860000F7E0093E8000091E8000B7F0093E800B2
:1058700001E06496E6E00C944A2F0091E800077F6F
:105880000093E80000916C0A0093F1000091E80099
:105890000E7F0093E8000091E8000F770093E80086
:1058A0000091E800102F12FFFBCF0091E8000B7F62
:1058B0000093E8000091E8000F770093E800089556
:1058C0001091F1001091F1002091F100005829F0A1
:1058D0000A9529F10A9551F135C00091E800077F3A
:1058E0000093E80000916B0A0093F10000E0009340
:1058F000F1000091E8000E7F0093E8000091E800BD
:10590000102F12FFFBCF0091E8000B7F0093E800FF
:105910000091E8000F770093E80001E008950091FE
:10592000E800077F0093E80000E0DECF0091E80088
:10593000077F0093E8002F7730E0F901EC59F54F2D
:105940000081D2CF00E00895005019F0025029F0F4
:1059500002C00091F10000E008950091F100109163
:10596000F1000023C1F70091F1000F7751F410917D
:10597000EB0010621093EB001091E800177F10937A
:10598000E8000093E9001091EB00212F20FD04C0F6
:1059900000E00093E90008951091EB00106210936D
:1059A000EB0010E01093E90021E0F801EC59F54F0D
:1059B00020830091E800077F0093E8000091E80051
:1059C0000E7F0093E80001E00895005019F00250A6
:1059D00029F002C00091F10000E008950091F1006B
:1059E0001091F1000023C1F72091F1002F7720934F
:1059F000E9000091EB00102F10FD04C000E00093BF
:105A0000E9000895A1F00091EB0000610093EB0024
:105A1000422F01E010E00E94912E0093EA0000E086
:105A20000093EA000091EB0008600093EB0000E0B7
:105A30000093E90030E0F901EC59F54F0083009143
:105A4000E800077F0093E8000091E8000E7F0093D4
:105A5000E80001E0089522970091F1000091F10023
:105A60001091F10018831091F1001983002311F5B2
:105A70000091E800077F0093E800088119810E94E7
:105A800084280093F1000091E8000E7F0093E80065
:105A90000091E800102F12FFFBCF0091E8000B7F70
:105AA0000093E8000091E8000F770093E80001E020
:105AB0002296089500E0FCCF22972091F1000091FA
:105AC000F1001091F10018831091F1001983002367
:105AD00011F000E017C00091E800077F0093E80094
